:100000000C9463000C948B000C948B000C949A035A
:100010000C9468030C9439030C948B000C948B00A3
:100020000C948B000C948B000C948B000C948B0024
:100030000C948B000C948B000C948B000C948B0014
:100040000C94A90A0C948B000C9488080C948B00D7
:100050000C948B000C948B000C948B000C948B00F4
:100060000C948B000C948B000000000024002700EF
:100070002A0000000000250028002B0000000000DE
:1000800023002600290004040404040404040202DA
:100090000202020203030303030301020408102007
:1000A0004080010204081020010204081020000012
:1000B0000007000201000003040600000000000029
:1000C0000000CC03410911241FBECFEFD8E0DEBFF2
:1000D000CDBF11E0A0E0B1E0E4E3F9E102C005909A
:1000E0000D92A434B107D9F712E0A4E4B1E001C045
:1000F0001D92A23AB107E1F710E0C6ECD0E004C0CF
:100100002297FE010E94940CC23CD107C9F70E94BD
:1001100081080C94980C0C940000FC0181918617C6
:1001200021F08823D9F7992708953197CF010895B1
:10013000FB01DC014150504030F08D91019080195D
:1001400019F40020B9F7881B990B0895FC01168259
:10015000403488E3580780E0680780E0780709F4B6
:1001600095C0413488E3580780E0680780E078074D
:10017000BCF5403689E0580780E0680780E07807E2
:1001800009F48DC0413689E0580780E0680780E0B7
:1001900078079CF44C3281E0580780E0680780E0E3
:1001A000780709F482C0403B84E0580780E0680784
:1001B00080E0780709F07CC075C0403C82E15807B8
:1001C00080E0680780E0780709F466C0403885E27F
:1001D000580780E0680780E0780709F069C059C0D7
:1001E00042318AE7580780E0680780E0780709F421
:1001F00042C043318AE7580780E0680780E078070B
:1002000094F440308BE4580780E0680780E078077A
:10021000D1F1403880E7580780E0680780E0780730
:1002200009F046C02BC0403081EE580780E06807D7
:1002300080E07807A1F0403082EC580781E0680741
:1002400080E0780749F0403086E9580780E0680789
:1002500080E0780769F50AC088E090E004C08DEF7F
:1002600086838FE190E09583848324C08DEF86831D
:1002700083E390E0F8CF8EE390E0F5CF8CEF8683B8
:1002800086E490E0F0CF8CE690E0EDCF88E990E056
:10029000EACF82EE90E0E7CF80ED91E0E4CF8CEA08
:1002A00093E0E1CF8CE497E0DECF8CE09DE1DBCF03
:1002B00015821482A481B581109709F451C0415070
:1002C000514E604070400CF04BC03281383090F499
:1002D0008091680084608093680020916D0081E0C7
:1002E00090E002C0880F991F3A95E2F7282B2093DF
:1002F0006D002FC03E30B0F4809168008160809323
:10030000680040916B00232F30E02850304081E09E
:1003100090E002C0880F991F2A95E2F7482B40937E
:100320006B0017C03631A8F480916800826080931A
:10033000680040916C00232F30E02E50304081E067
:1003400090E002C0880F991F2A95E2F7482B40934E
:100350006C00CD0120E001972FEF8F3F9207D9F776
:1003600080914401909145018E179F0771F017828B
:100370009FB7F8941092860180918601809387013F
:10038000F0934501E09344019FBF0895FC018091E3
:100390004401909145018E179F0779F017829FB70E
:1003A000F894109286018091860180938701F093E2
:1003B0004501E09344019FBF06C090918701809161
:1003C0008601981719F42FEF3FEF0FC0E0918701D6
:1003D000F0E0EA5BFE4F20818091870190E001967A
:1003E0008F7390708093870130E0C9010895BF92A8
:1003F000CF92DF92EF92FF920F931F93CF93DF93F1
:10040000EC01E62E8C819D81892B09F464C08091DA
:100410004401909145018C179D0771F01F829FB791
:10042000F894109286018091860180938701D09381
:100430004501C09344019FBFBFB6F8948B8160E033
:100440000E94730B8E81992787FD90952C813D81A9
:10045000820F931F20E001972FEF8F3F9207D9F76C
:10046000FF24F39400E010E0CE2CDD248F2D90E0EB
:100470008C219D21892B19F08B8161E002C08B8139
:1004800060E00E94730B8E81992787FD90952C81E7
:100490003D81820F931FEE242E2D01972FEF8F3F6A
:1004A0009207D9F7FF0C0F5F1F4F08301105F1F6C7
:1004B0008B8161E00E94730BBFBE8E81992787FDFF
:1004C00090952C813D81820F931F2E2D01972FEF48
:1004D0008F3F9207D9F7DF91CF911F910F91FF9036
:1004E000EF90DF90CF90BF9008950F931F938C01F2
:1004F000862FF801628360E00E94530BF80182812D
:1005000061E00E94730B1F910F9108950F931F9349
:100510008C01862FF801638361E00E94530BF80180
:10052000838161E00E94730B1F910F910895FF92E8
:100530000F931F938C01F62E8BE391E0F8019183CA
:1005400080831582148216821782C801642F0E944C
:100550008602C8016F2D0E9475021F910F91FF90B6
:100560000895CF92DF92EF92FF920F931F93CF9354
:10057000DF938C012F933F934F935F936F937F9300
:10058000AF93BF93FC0182810E94C00B892B09F0BD
:100590005FC0F8018481958196958795089720E042
:1005A00001972FEF8F3F9207D9F7FF24C0E0D0E0EB
:1005B000EE2481E0C82ED12CF80184819581069724
:1005C0002E2D01972FEF8F3F9207D9F782810E943E
:1005D000C00B892B49F0C6010C2E02C0880F991F51
:1005E0000A94E2F7F82A09C0C6010C2E02C0880F4F
:1005F000991F0A94E2F78095F8222196C830D10518
:10060000D9F6F8018481958120E001972FEF8F3F83
:100610009207D9F7809186012091870190E0019699
:100620008F73907030E08217930779F0E091860124
:10063000F0E0EA5BFE4FF0828091860190E0019647
:100640008F7390708093860103C081E0F8018783E7
:10065000BF91AF917F916F915F914F913F912F919A
:10066000DF91CF911F910F91FF90EF90DF90CF908E
:1006700008951F920F920FB60F9211242F933F935C
:100680004F935F936F937F938F939F93AF93BF939A
:10069000EF93FF93E0914401F0914501309739F0D9
:1006A000828190E008971CF4CF010E94B102FF9173
:1006B000EF91BF91AF919F918F917F916F915F91DA
:1006C0004F913F912F910F900FBE0F901F90189553
:1006D0001F920F920FB60F9211242F933F934F93B7
:1006E0005F936F937F938F939F93AF93BF93EF939A
:1006F000FF93E0914401F0914501309751F08281E0
:1007000090E08E3091052CF046971CF4CF010E94AA
:10071000B102FF91EF91BF91AF919F918F917F9126
:100720006F915F914F913F912F910F900FBE0F905E
:100730001F9018951F920F920FB60F9211242F93AE
:100740003F934F935F936F937F938F939F93AF9359
:10075000BF93EF93FF93E0914401F09145013097EF
:1007600051F0828190E0883091052CF00E971CF4B6
:10077000CF010E94B102FF91EF91BF91AF919F9184
:100780008F917F916F915F914F913F912F910F903A
:100790000FBE0F901F90189588E891E062E043E04B
:1007A0000E94970208951F931092EC0188E891E04F
:1007B0000E94C601182F8F3FC9F384E892E0612F91
:1007C0000E9478091A3091F38091EC01893511F07B
:1007D0001D3049F4E82FFF27E7FDF095E057FE4F65
:1007E00010821F910895E82FFF27E7FDF095E0574D
:1007F000FE4F10838F5F8093EC01D8CFAF92BF92F2
:10080000CF92DF92EF92FF920F931F93CF93DF93DC
:1008100084E892E060E071E00E9480090E94D303C6
:1008200080E991E069E071E046E050E00E949800C4
:10083000009709F034C487E991E09093EB0180932D
:10084000EA01EC01EE24FF2487011CC08D2D8053AA
:100850008A30D8F4C801B7012AE030E040E050E027
:100860000E940F0C7B018C018D2D992787FD90959F
:10087000C097AA2797FDA095BA2FE80EF91E0A1F68
:100880001B1F2196D880DD2009F7C801B70120E1A0
:1008900037E240E050E00E94410C2093ED01C80196
:1008A000B70124E630E040E050E00E94410CCA016C
:1008B000B90124E630E040E050E00E94410C609332
:1008C000EE01C801B70124E630E040E050E00E94AC
:1008D000410C6093EF0187E991E06CE270E00E94C7
:1008E0008D00FC013196F093EB01E093EA01319722
:1008F00081818093FF0183E0A82EB12CAE0EBF1E34
:10090000B092EB01A092EA01EF0120E030E040E07C
:1009100050E01CC02196812F80538A30D0F4CA0148
:10092000B9012AE030E040E050E00E940F0C9B014A
:10093000AC01812F992787FD9095C097AA2797FD35
:10094000A095BA2F280F391F4A1F5B1F1B81112347
:1009500009F72093F3013093F4014093F50150938C
:10096000F601211531054105510509F451C0CA01AF
:10097000B90120E137E240E050E00E940F0C6B012A
:100980007C016093F3017093F4018093F5019093DF
:10099000F601C5016EE270E00E948D009C012F5FA0
:1009A0003F4F3093EB012093EA0121503040E901A1
:1009B00020E030E040E050E01CC02196812F8053C1
:1009C0008A30D0F4CA01B9012AE030E040E050E0BA
:1009D0000E940F0C9B01AC01812F992787FD9095F8
:1009E000C097AA2797FDA095BA2F280F391F4A1F35
:1009F0005B1F1981112309F72C0D3D1D4E1D5F1D35
:100A00002093F3013093F4014093F5015093F601E4
:100A10008091EA019091EB016CE270E00E948D0000
:100A2000FC0101969093EB018093EA0121812C3225
:100A300011F02093FD016CE270E00E948D005C01DA
:100A40000894A11CB11CB092EB01A092EA01EC0148
:100A500020E030E040E050E01CC02196812F805320
:100A60008A30D0F4CA01B9012AE030E040E050E019
:100A70000E940F0C9B01AC01812F992787FD909557
:100A8000C097AA2797FDA095BA2F280F391F4A1F94
:100A90005B1F1981112309F72093F7013093F801A7
:100AA0004093F9015093FA01211531054105510593
:100AB00009F451C0CA01B90120E137E240E050E039
:100AC0000E940F0C6B017C016093F7017093F80199
:100AD0008093F9019093FA01C5016EE270E00E94E3
:100AE0008D009C012F5F3F4F3093EB012093EA0173
:100AF00021503040E90120E030E040E050E01CC0EF
:100B00002196812F80538A30D0F4CA01B9012AE09E
:100B100030E040E050E00E940F0C9B01AC01812FBF
:100B2000992787FD9095C097AA2797FDA095BA2F82
:100B3000280F391F4A1F5B1F1981112309F72C0D3C
:100B40003D1D4E1D5F1D2093F7013093F80140932A
:100B5000F9015093FA018091EA019091EB016CE266
:100B600070E00E948D00FC0101969093EB01809350
:100B7000EA0121812C3211F02093FE016CE270E039
:100B80000E948D007C010894E11CF11CF092EB01A5
:100B9000E092EA01EC0120E030E040E050E01CC0CF
:100BA0002196812F80538A30D0F4CA01B9012AE0FE
:100BB00030E040E050E00E940F0C9B01AC01812F1F
:100BC000992787FD9095C097AA2797FDA095BA2FE2
:100BD000280F391F4A1F5B1F1981112309F7209322
:100BE000FB01C7016CE270E00E948D007C0108945B
:100BF000E11CF11CF092EB01E092EA01EC0120E033
:100C000030E040E050E01CC02196812F80538A30B4
:100C1000D0F4CA01B9012AE030E040E050E00E947F
:100C20000F0C9B01AC01812F992787FD9095C097F0
:100C3000AA2797FDA095BA2F280F391F4A1F5B1FBF
:100C40001981112309F72093FC01C7016CE270E0C0
:100C50000E948D009C012F5F3F4F3093EB0120934A
:100C6000EA0121503040E901EE24FF2487011CC035
:100C700021968D2D80538A30D0F4C801B7012AE027
:100C800030E040E050E00E940F0C7B018C018D2D84
:100C9000992787FD9095C097AA2797FDA095BA2F11
:100CA000E80EF91E0A1F1B1FD980DD2009F7C801B5
:100CB000B70120E137E240E050E00E94410C209370
:100CC000F201C801B70124E630E040E050E00E94A4
:100CD000410CCA01B90124E630E040E050E00E9436
:100CE000410C6093F101C801B70124E630E040E017
:100CF00050E00E94410C6093F00184E892E060E1D2
:100D000071E00E9480094091ED0150E060E070E0E8
:100D100084E892E02AE030E00E94890A84E892E0C8
:100D20006AE30E9478094091EE0150E060E070E0D3
:100D300084E892E02AE030E00E94890A84E892E0A8
:100D40006AE30E9478094091EF0150E060E070E0B2
:100D500084E892E02AE030E00E949E0A84E892E073
:100D600068E171E00E9480094091F10150E060E08B
:100D700070E084E892E02AE030E00E94890A84E88A
:100D800092E06FE20E9478094091F20150E060E049
:100D900070E084E892E02AE030E00E94890A84E86A
:100DA00092E06FE20E9478094091F00150E060E02B
:100DB00070E084E892E02AE030E00E949E0A84E835
:100DC00092E06FE171E00E9480098091FD018E3414
:100DD00021F484E892E06BE205C0833529F484E8CD
:100DE00092E06DE20E9478096091F3017091F40144
:100DF0008091F5019091F60120E432E44FE050E05B
:100E00000E94410C84E892E0BA01A9012AE030E096
:100E10000E94890A84E892E044E656E660E070E0C9
:100E200020E030E00E94890A84E892E060E20E94BB
:100E300078096091F3017091F4018091F50190912E
:100E4000F60120E137E240E050E00E94410CCA0187
:100E5000B90124E630E040E050E00E94410CAB01D3
:100E6000BC0184E892E02AE030E00E94890A84E82C
:100E700092E067E20E94780984E892E060E20E94D2
:100E800078096091F3017091F4018091F5019091DE
:100E9000F60120E137E240E050E00E94410C26E0FC
:100EA00030E040E050E00E940F0C28EE33E040E0DC
:100EB00050E00E94410C84E892E0BA01A9012AE0C6
:100EC00030E00E94890A84E892E06EE20E9478098C
:100ED0006091F3017091F4018091F5019091F60118
:100EE00020E137E240E050E00E94410C26E030E093
:100EF00040E050E00E940F0C2AE030E040E050E07B
:100F00000E94410CCA01B90124E630E040E050E003
:100F10000E94410CAB01BC0184E892E02AE030E081
:100F20000E94890A84E892E062E20E94AF0984E8A4
:100F300092E065E271E00E9480098091FE018534B3
:100F400021F484E892E06BE205C0873529F484E857
:100F500092E06DE20E9478096091F7017091F801CA
:100F60008091F9019091FA0120E432E44FE050E0E1
:100F70000E94410C84E892E0BA01A9012AE030E025
:100F80000E94890A84E892E044E656E660E070E058
:100F900020E030E00E94890A84E892E060E20E944A
:100FA00078096091F7017091F8018091F9019091B1
:100FB000FA0120E137E240E050E00E94410CCA0112
:100FC000B90124E630E040E050E00E94410CAB0162
:100FD000BC0184E892E02AE030E00E94890A84E8BB
:100FE00092E067E20E94780984E892E060E20E9461
:100FF00078096091F7017091F8018091F901909161
:10100000FA0120E137E240E050E00E94410C26E086
:1010100030E040E050E00E940F0C28EE33E040E06A
:1010200050E00E94410C84E892E0BA01A9012AE054
:1010300030E00E94890A84E892E06EE20E9478091A
:101040006091F7017091F8018091F9019091FA0196
:1010500020E137E240E050E00E94410C26E030E021
:1010600040E050E00E940F0C2AE030E040E050E009
:101070000E94410CCA01B90124E630E040E050E092
:101080000E94410CAB01BC0184E892E02AE030E010
:101090000E94890A84E892E062E20E94AF09DF912F
:1010A000CF911F910F91FF90EF90DF90CF90BF9065
:1010B000AF9008950F931F9384E061E00E94530B5B
:1010C0008DE061E00E94530B04E812E0C80140EC9F
:1010D00052E160E070E00E94C50888E891E040ECD1
:1010E00052E160E070E00E94A600C8016CE271E08D
:1010F0000E94BF0984E060E00E94730B1F910F9172
:1011000008950E94190B0E945A080E94FE03FDCF09
:101110001F920F920FB60F9211242F933F934F936C
:101120005F936F937F938F939F93AF93BF93EF934F
:10113000FF934091C600E0918002F0918102CF01BF
:10114000019660E870E00E942E0C9C018091820262
:10115000909183022817390739F0E050FE4F408301
:101160003093810220938002FF91EF91BF91AF9164
:101170009F918F917F916F915F914F913F912F91AF
:101180000F900FBE0F901F901895AF92BF92CF9205
:10119000DF92EF92FF920F931F93CF93DF936C0137
:1011A0007A018B01DC011496AD90BC901597CB01B0
:1011B000BA0122E030E040E050E00E94630C205C85
:1011C0003D4B404F5F4FCA01B901A80197010E94F2
:1011D000630CC901DA010197A109B109292F3A2F3E
:1011E0004B2F552747FD5A950196A11DB11DE501CD
:1011F0002883E601EE81FF8181508083EA85FB85AB
:10120000208141E050E0CA010E8402C0880F991F7E
:101210000A94E2F7282B2083EA85FB852081CA0106
:101220000F8402C0880F991F0A94E2F7282B2083AD
:10123000EA85FB858081088802C0440F551F0A9407
:10124000E2F7842B8083DF91CF911F910F91FF9064
:10125000EF90DF90CF90BF90AF900895FC01A085F4
:10126000B18521898C9190E0022E02C095958795D9
:101270000A94E2F780FFF6CF0484F585E02D6083C1
:10128000089581E491E0909385028093840280E048
:1012900092E0909387028093860285EC90E0909391
:1012A00089028093880284EC90E090938B02809373
:1012B0008A0280EC90E090938D0280938C0281EC06
:1012C00090E090938F0280938E0286EC90E0909352
:1012D00091028093900284E08093920283E0809355
:1012E000930287E08093940285E0809395020895AD
:1012F000DC01ED91FC910190F081E02D09950895BC
:101300000F931F93CF93DF938C01EB0109C02196BC
:10131000D801ED91FC910190F081E02DC801099573
:1013200068816623A1F7DF91CF911F910F910895F6
:101330000F931F938C01DC01ED91FC910190F081E2
:10134000E02D6DE00995D801ED91FC910190F081BF
:10135000E02DC8016AE009951F910F9108950F9340
:101360001F938C01DC01ED91FC910190F081E02D47
:101370000995C8010E9498091F910F9108950F9334
:101380001F938C010E948009C8010E9498091F9137
:101390000F9108952F923F924F925F926F927F929A
:1013A0008F929F92AF92BF92CF92DF92EF92FF9275
:1013B0000F931F93DF93CF93CDB7DEB7A0970FB6F0
:1013C000F894DEBF0FBECDBF1C016A017B01411541
:1013D00051056105710549F4DC01ED91FC91019025
:1013E000F081E02D60E3099554C0882499245401CC
:1013F000422E55246624772401E010E00C0F1D1FB7
:10140000080D191DC701B601A30192010E94410CEC
:10141000F80160830894811C911CA11CB11CC701B8
:10142000B601A30192010E94410CC901DA016C01CD
:101430007D01C114D104E104F104F1F681E0E82E4C
:10144000F12CEC0EFD1EE80CF91C3E010894611C09
:10145000711CD501C4010197A109B1096C01C8181B
:10146000D90814C0F601EE0DFF1D60816A3010F43A
:10147000605D01C0695CD101ED91FC910190F0814A
:10148000E02DC10109950894E108F1086E147F046C
:1014900049F7A0960FB6F894DEBF0FBECDBFCF912F
:1014A000DF911F910F91FF90EF90DF90CF90BF9051
:1014B000AF909F908F907F906F905F904F903F90F4
:1014C0002F900895EF92FF920F931F93CF93DF9386
:1014D000EC017A018B0177FF0FC0E881F98101905F
:1014E000F081E02D6DE2099510950095F094E0945F
:1014F000E11CF11C011D111DCE01B801A7012AE05C
:101500000E94CA09DF91CF911F910F91FF90EF9038
:101510000895DC012115310541F4ED91FC91019014
:10152000F081E02D642F099508952A30310519F4D2
:101530000E94620A08950E94CA0908950F931F939A
:101540008C010E94890AC8010E9498091F910F917D
:1015500008951F920F920FB60F9211242F938F931D
:101560009F93AF93BF938091960290919702A09121
:101570009802B09199020196A11DB11D8093960227
:1015800090939702A0939802B093990280919A0247
:1015900090919B02A0919C02B0919D028050904C32
:1015A000AF4FBF4F80939A0290939B02A0939C02EF
:1015B000B0939D0227C080919A0290919B02A091C6
:1015C0009C02B0919D0280589E43A040B040809301
:1015D0009A0290939B02A0939C02B0939D028091EB
:1015E0009E0290919F02A091A002B091A10201964B
:1015F000A11DB11D80939E0290939F02A093A00213
:10160000B093A10280919A0290919B02A0919C02BA
:10161000B0919D0281589E43A040B04060F6BF91BA
:10162000AF919F918F912F910F900FBE0F901F90B0
:101630001895789484B5826084BD84B5816084BD3A
:1016400085B5826085BD85B5816085BDEEE6F0E03B
:10165000808181608083E1E8F0E080818260808326
:10166000808181608083E0E8F0E080818160808318
:10167000E1EBF0E0808184608083E0EBF0E080814A
:1016800081608083EAE7F0E08081846080838081EC
:101690008260808380818160808380818068808394
:1016A0001092C1000895282F30E0C90186569F4F3F
:1016B000FC0194912A573F4FF9018491882391F0BE
:1016C000E82FF0E0EE0FFF1FE859FF4FA591B4910E
:1016D000662329F48C91909589238C9308958C919D
:1016E000892B8C930895482F50E0CA0182559F4F53
:1016F000FC012491CA0186569F4FFC0194914A57E0
:101700005F4FFA0134913323D1F1222331F1233099
:1017100021F4809180008F7705C0243031F48091CE
:1017200080008F7D8093800018C0213019F484B52B
:101730008F7704C0223021F484B58F7D84BD0DC025
:10174000263021F48091B0008F7705C0273029F42E
:101750008091B0008F7D8093B000E32FF0E0EE0F1A
:10176000FF1FEE58FF4FA591B491662329F48C9189
:10177000909589238C9308958C91892B8C9308954F
:10178000682F70E0CB0182559F4FFC012491CB0163
:1017900086569F4FFC0144916A577F4FFB019491FD
:1017A000992319F420E030E038C0222331F12330AE
:1017B00021F4809180008F7705C0243031F480912E
:1017C00080008F7D8093800018C0213019F484B58B
:1017D0008F7704C0223021F484B58F7D84BD0DC085
:1017E000263021F48091B0008F7705C0273029F48E
:1017F0008091B0008F7D8093B000892F90E0880F9A
:10180000991F84589F4FFC01A591B4918C9120E0C1
:1018100030E0842311F021E030E0C9010895629F97
:10182000D001739FF001829FE00DF11D649FE00DD8
:10183000F11D929FF00D839FF00D749FF00D659F39
:10184000F00D9927729FB00DE11DF91F639FB00D38
:10185000E11DF91FBD01CF011124089597FB092E49
:1018600007260AD077FD04D049D006D000201AF40C
:10187000709561957F4F0895F6F7909581959F4FEC
:101880000895A1E21A2EAA1BBB1BFD010DC0AA1FC1
:10189000BB1FEE1FFF1FA217B307E407F50720F0D9
:1018A000A21BB30BE40BF50B661F771F881F991F54
:1018B0001A9469F760957095809590959B01AC019D
:1018C000BD01CF01089597FB092E05260ED057FDC7
:1018D00004D0D7DF0AD0001C38F4509540953095DD
:1018E00021953F4F4F4F5F4F0895F6F790958095A4
:1018F000709561957F4F8F4F9F4F0895AA1BBB1B1B
:1019000051E107C0AA1FBB1FA617B70710F0A61BFF
:10191000B70B881F991F5A95A9F780959095BC0120
:10192000CD010895EE0FFF1F0590F491E02D09946D
:04193000F894FFCF59
:101934000A0D726561643A2000244750524D4300F9
:101944000A54696D653A2000446174653A20004C7C
:1019540061743A20004C6F6E673A20004750532060
:101964007061727365720000000000F701000000EE
:04197400002E090038
:00000001FF
